:020000040040BA
:10000000D04D4020A5494000A1494000A1494000F1
:10001000A1494000A1494000A14940000000000062
:10002000000000000000000000000000A1494000A6
:10003000A149400000000000A1494000A149400042
:10004000A1494000A1494000A1494000B92E40000B
:10005000A1494000A1494000A1494000A1494000F8
:10006000A1494000000000003141400041414000F2
:1000700051414000A1494000A1494000A149400030
:100080006141400071414000A1494000A149400048
:10009000A1494000A1494000A1494000A1494000B8
:1000A000A1494000A1494000A1494000A1494000A8
:1000B000A1494000A1494000A1494000A149400098
:1000C000A1494000A1494000A1494000A149400088
:1000D00000000000A149400000000000A1494000CC
:1000E000A1494000A1494000A1494000A149400068
:1000F000A1494000A1494000A1494000A149400058
:10010000A1494000A1494000A1494000A149400047
:10011000A1494000000000000000000000000000B5
:10012000A1494000A1494000A1494000A149400027
:10013000A149400000000000A1494000A149400041
:1001400010B5054C237833B9044B13B10448AFF311
:1001500000800123237010BD7C09402000000000B6
:1001600034214500084B10B51BB108490848AFF3CE
:1001700000800848036803B910BD074B002BFBD073
:10018000BDE81040184700BF000000008009402073
:10019000342145003421450000000000102808D11A
:1001A000B1F1805F05D108B5024B1B6803B19847D8
:1001B00008BD70479809402040B138B50446044D49
:1001C000284651F0A9FF013CFAD138BD704700BF65
:1001D00035160300F8B5094E4FF400377763084C25
:1001E000082565636420FFF7E7FF37636420FFF7A6
:1001F000E3FF25636420FFF7DFFFF8BD00120E4028
:1002000000100E4008B50022164B1A600A2004F0B8
:1002100085F80B2004F082F80C2004F07FF8102001
:1002200004F07CF8112004F079F80F4B08221A61D1
:10023000C3F8A0201A630D4A4FF400311161C2F8CF
:10024000A010116304221A61C3F8A0201A63084B9E
:100250001B6813F0010F01D0054B1B68FFF7BAFFB5
:10026000002008BD9809402000100E4000120E40EA
:1002700010E000E010B582B0144B1860102004F0BC
:100280004DF84FF020517C2003F07CFE104C0122F1
:100290004FF08051204603F06FFD0E4B0093512329
:1002A0004FF080521021204603F024FF4FF0805180
:1002B000204603F041FE4FF48032074B1A600022C3
:1002C0001021204603F05CFF02B010BD98094020C9
:1002D00000140E409D01400000E100E008B528B187
:1002E0004FF08051044803F027FE08BD4FF08051C5
:1002F000014803F025FE08BD00140E4030B587B05C
:1003000060238DF8143000238DF804308DF805300B
:100310008DF806300293039004916524064D02E0A7
:10032000013CA4B22CB101A9284604F0A5F900288B
:10033000F6D1002007B030BD0080014000B585B087
:10034000132003F0EBFF0C4B01930C4B029301A91C
:100350000B4804F01FF958B1B1220A490A4804F0C9
:1003600059FF0A4804F056FF094804F053FFFEE71E
:10037000002005B05DF804FB80D1F008801A06006B
:10038000008001406CEB400088EB40009CEB40009B
:10039000A00F4200F0B587B00B46012820D010B165
:1003A000022822D035E049681A8960238DF814307C
:1003B00000238DF804308DF805308DF80630029357
:1003C0000391049265241A4D02E0013CA4B22CB1C1
:1003D00001A9284604F0F6F80028F6D1002025E00F
:1003E00009895868FFF78AFF20E08E898F68CC89D9
:1003F000104D32464968284600F028F82246394612
:10040000A81900F023F8311989B22846FFF776FFC2
:100410000CE0FF220849094804F0FCFE084804F0FB
:10042000F9FE084804F0F6FE4FF0FF3007B0F0BDCB
:10043000008001409C09402078EB400088EB4000A0
:10044000C4EB4000A00F4200002070473AB10139D0
:10045000821811F8013F00F8013B9042F9D1704732
:1004600022B1821800F8011B9042FBD1704700BFF7
:10047000034602783AB10020013080B213F8012F10
:10048000002AF9D170470020704700BF024A137854
:100490000133DBB213707047A4194020704700BFCE
:1004A00000B583B00120FFF719FF01A941F27000E8
:1004B00001F022F9034640B9019941F0020101918E
:1004C00041F2700001F01CF90346184603B05DF8D4
:1004D00004FB00BF08B5114B1B7813F0FF0F15D1BB
:1004E0000F4B1B78DBB2032B04D00D4B1B78DBB218
:1004F000042B0BD100F0E0FE034668B945F27861A9
:1005000041F2740001F0FCF8034628B9034A13785D
:100510000133DBB213700023184608BDC019402018
:10052000B019402000B583B01D4B1B7813F0FF0FAE
:1005300004D01B4A1378013BDBB21370184B1B78B5
:1005400013F0FF0F25D1174B1B78DBB2032B04D020
:10055000144B1B78DBB2042B1DD10023019344F212
:10056000213141F2740001F0CBF80346A0B901A992
:10057000012001F0C1F8034670B9019911F0020F92
:100580000AD021F002010191012001F0B9F80346DF
:1005900002E0002300E00023184603B05DF804FBEE
:1005A000C0194020B01940202DE9F04F87B0824695
:1005B0000F4691469846109CBDF84460BDF84850DF
:1005C00001F07F038DF815308DF814000823ADF885
:1005D000163044B1BDF8163016FA83F32B449BB2A3
:1005E000ADF8163006E0BDF8163018FA83F39BB26A
:1005F000ADF81630FFF76EFF8346002840F0A38069
:1006000000230393ADF806300293029B4AEA0303EA
:100610000293029B43EA07270297BDF81620029B2C
:1006200043EA02430293029941F28C0001F068F818
:100630008346002840F09A8000230293029B43F0F7
:1006400002030293029941F2780001F059F88346BF
:10065000002840F08B8000230393ADF80630BDF8EE
:1006600006309BB2B3F57A7F1ED241F2780702A919
:10067000384601F041F8B8B9029B13F0020F07D1D8
:1006800003A93C4801F038F870B1002303930BE054
:10069000BDF8063001339BB2ADF80630BDF8063028
:1006A0009BB2B3F57A7FE2D3039B002B5CD0039B14
:1006B0000493BDF816309BB2ADF8163004980822AA
:1006C00005A901F04DF883460120FFF775FDBBF148
:1006D000000F4BD1049B08330493B9F1000F0ED0E7
:1006E00004984246494601F03BF883460120FFF753
:1006F00063FDBBF1000F39D1049B434404939CB1CB
:10070000049BC8EB05051D44049504983246214618
:1007100001F026F883460120FFF74EFDBBF1000FE4
:1007200024D1049B1E440496039B9B000293029BCE
:1007300043F002030293029941F26C0000F0E0FFE3
:10074000834698B90CE040F29F120B490B4804F025
:1007500061FD0B4804F05EFD0A4804F05BFD05E016
:10076000FFF7E0FE834601E06FF0020B584607B04A
:10077000BDE8F08F0004150044EE400088EB400017
:1007800004EC4000A00F42002DE9F04387B0DFF8F1
:100790001C83B24FB24DB34E56E198F80030013B86
:1007A000DBB288F80030FFF795FE0446002840F0E1
:1007B0002C8103A941F2700000F09EFF044600283E
:1007C00040F01681039B13F0010F00F00381FFF747
:1007D00085FD039921F00101039141F2700000F0C1
:1007E0008FFF0446002840F0218100229E4B1A70A2
:1007F000039BC3F38B09B9F1000F00F0DC8006A95D
:1008000041F8042D41F2840000F076FF044678B1EF
:100810004FF4E7723146284604F0FCFC934804F09C
:10082000F9FC934804F0F6FC0120FFF757FDFCE0CB
:10083000042204A9059800F067FFBDF812309BB2AE
:10084000ADF81230044678B14FF4EB7231462846C9
:1008500004F0E0FC874804F0DDFC854804F0DAFC95
:100860000120FFF73BFDE0E0BDF812309BB2994557
:1008700021D0BDF812309BB2C3EB0903042B1ADD63
:1008800040F2DF123146284604F0C4FCBDF81220C5
:100890009DF810309DF81110009192B249467648AB
:1008A00004F0B8FC724804F0B5FC0120FFF716FD17
:1008B0006FF00504B9E09DF81030DBB2012B0DD1CB
:1008C0006E4B1B68002B62D09DF81100BDF8121012
:1008D0000839059A083289B2984758E09DF81030D7
:1008E000DBB2022B0DD1664B1B68002B4FD09DF85D
:1008F0001100BDF812100839059A083289B29847DC
:1009000045E09DF81030DBB2042B0DD15D4B1B6828
:10091000002B3CD09DF81100BDF812100839059A43
:10092000083289B2984732E09DF81030DBB2062BCE
:100930000CD1554B1B6853B39DF81100BDF8121034
:100940000839059A083289B2984720E09DF810309E
:10095000DBB2072B0CD14D4B1B68C3B19DF81100C6
:10096000BDF812100839059A083289B298470EE08E
:1009700040F202223146284604F04CFC444804F080
:1009800049FC3B4804F046FC6FF005044DE0364B53
:100990001B7813F0FF0F45D140F20922314628465B
:1009A00004F038FC3B4804F035FC314804F032FCDC
:1009B000FFF776FD36E040F211223146284604F07A
:1009C00029FC354804F026FC294804F023FC6FF08C
:1009D00001042BE04FF406723146284604F01AFC5D
:1009E00003992E4804F016FC214804F013FC19E08A
:1009F00040F21E223146284604F00CFC284804F040
:100A000009FC1B4804F006FC10E04FF40972314663
:100A1000284604F0FFFB384604F0FCFB144804F0C1
:100A2000F9FB03E0FFF77EFD04466CB140F2432280
:100A30001C49284604F0EEFB21461B4804F0EAFB63
:100A40000B4804F0E7FBAEE698F8003013F0FF0F18
:100A50007FF4A3AE002007B0BDE8F08334ED400082
:100A600088EB4000DCEB4000B819402024EC40004B
:100A7000A00F42004CEC400064EC4000A019402064
:100A8000B4194020BC1940209C194020AC194020CA
:100A9000A4EC4000BCEC4000E0EC4000F4EC400072
:100AA00010ED4000F4EB400054ED4000A41940204C
:100AB0002DE9F04383B01C46002A18BF002903D05B
:100AC00005460F461646B0B934B10122344B1A70B0
:100AD000FFF7E6FC03465EE040F269223149324806
:100AE00004F098FB314804F095FB314804F092FB88
:100AF0006FF00B034FE0694641F2700000F0FCFD1F
:100B00000346002847D1DDF8008001A941F28400A6
:100B100000F0F2FD034600283DD1C8F38B0846459E
:100B200010D940F27A221F491F4804F073FB424655
:100B30003146204804F06EFB1D4804F06BFB6FF05B
:100B40000B0328E0019B9D4204D305EB06094344B7
:100B500099450ED94FF420721249134804F05AFBFC
:100B6000154804F057FB124804F054FB6FF00B03D8
:100B700011E032463946284600F0C6FD034650B91A
:100B8000019A42444A4500D02CB10122044B1A700C
:100B9000FFF786FC0346184603B0BDE8F08300BFAC
:100BA000B819402038EE400088EB400084ED40004A
:100BB000A00F4200A4ED4000E8ED4000431E062BCC
:100BC0001DD8DFE803F00804100C1C141800154BA6
:100BD000196000207047144B196000207047134BB8
:100BE000196000207047124B196000207047114BAC
:100BF000196000207047104B19600020704710B535
:100C0000044640F2B9220D490D4804F003FB214689
:100C10000C4804F0FFFA0C4804F0FCFA6FF00B00EB
:100C200010BD00BFB4194020A0194020BC194020BD
:100C3000A81940209C194020AC194020E4EB40004A
:100C400088EB40002CEE4000A00F420010B50024BD
:100C5000094B1C60094B1C60094B1C70094B1C7034
:100C6000094B1C700948FFF705FB09490320FFF7F2
:100C7000A5FF204610BD00BFA0194020B419402098
:100C8000C0194020B0194020A41940208D04400014
:100C90009D04400030B59FB015462C2811D100238B
:100CA000042203A92846FFF703FF002840F01F8114
:100CB000904B1B68002B00F01A8103A92C20984749
:100CC00015E104461B2811D10023082203A9284658
:100CD000FFF7EEFE002840F00A81864B1B68002BD0
:100CE00000F0058103A91B20984700E1062811D1D7
:100CF0000123302203A92846FFF7DAFE002840F03E
:100D0000F6807C4B1B68002B00F0F18003A90620C5
:100D10009847ECE00E2800F0EA80322811D1002339
:100D2000102203A92846FFF7C3FE002840F0DF8009
:100D3000704B1B68002B00F0DA8003A93220984723
:100D4000D5E02F2816D16422002103A8FFF788FBE5
:100D50000023642203A92846FFF7AAFE002840F0DA
:100D6000C680644B1B68002B00F0C18003A92F20B4
:100D70009847BCE0342822D10023042203A9284646
:100D8000FFF796FE002840F0B2805B4804F042FA7C
:100D900003990B0E0093C1F30743C1F30722C9B2B5
:100DA000564804F037FA564804F034FA514B1B68A1
:100DB000002B00F09C8000213420984797E01128F8
:100DC00017D100234F4A1370042203A92846FFF7C6
:100DD0006FFE002840F08B809DF80C204A4B1A7063
:100DE000444B1B68002B00F0828003A91120984718
:100DF0007DE013280FD100232C2203A92846FFF7FA
:100E000057FE002873D13B4B1B68002B6FD003A902
:100E1000132098476BE004280FD1002304221CA95B
:100E20002846FFF745FE002861D1324B1B68002B96
:100E30005DD01CA90420984759E065280FD10023F4
:100E400004221CA92846FFF733FE00284FD1294B66
:100E50001B68002B4BD01CA96520984747E0092848
:100E60000FD10123642203A92846FFF721FE0028A1
:100E70003DD1204B1B68002B39D003A9092098478E
:100E800035E02A280DD10123042203A92846FFF7C3
:100E90000FFE60BB174B1B684BB303A92A20984772
:100EA00025E0202816D10023082203A92846FFF7B1
:100EB000FFFDE0B90123BDF81020039905F10800FA
:100EC000FFF7F6FD98B90B4B1B6883B103A92020EF
:100ED00098470CE04FF492720C490D4804F09AF9CF
:100EE00021460C4804F096F9054804F093F91FB028
:100EF00030BD00BFC419402070EE40007CEE4000C1
:100F0000A00F4200C8194020C919402064EE4000DB
:100F100088EB40009CEE400070B58AB001238DF84C
:100F20000730002859D002682E4B1A6000222E4B41
:100F30001A700DF1070000F091FC044600284ED114
:100F4000FFF784FE0446002843D128490120FFF71B
:100F500035FE02A800F030FC0446254E304604F071
:100F600059F99DF80E309DF80D209DF80C10214880
:100F700004F050F9204D284604F04CF9304604F0B6
:100F800049F99DF811309DF810209DF80F101B486D
:100F900004F040F9284604F03DF9304604F03AF9EF
:100FA000002303221321164804F034F9284604F0E4
:100FB00031F914F10D0F12D140F2CF12114912483C
:100FC00004F028F9114804F025F9284604F022F924
:100FD00005E0002000F09AFC01E06FF00B042046D1
:100FE0000AB070BDC4194020C8194020950C4000BB
:100FF00070EE400054EF4000A00F420070EF400040
:101000008CEF400098F1400088EB4000A8EF4000D2
:1010100008B5FFF7B9FB08BD2DE9F041A0B0804647
:101020000D4614461E46BDF89870012A49D073B982
:1010300040F2FD128249834804F0ECF8824804F043
:10104000E9F8824804F0E6F86FF00B00F5E0022AB8
:1010500037D11846FFF70CFA402832D13378A3F184
:101060003002D2B2362A1BD8A3F13A02D2B2062AF3
:1010700016D9473BDBB2192B12D9314606F13F0096
:1010800011F8013FA3F13A02D2B2062A08D9A3F11E
:101090003002D2B2362A03D8473BDBB2192B0ED826
:1010A00040F209226649674804F0B4F8684804F041
:1010B000B1F8664804F0AEF86FF00B00BDE088426E
:1010C000DED16B1EDBB21F2B0ED940F213225C491E
:1010D0005C4804F09FF85F4804F09CF85B4804F01B
:1010E00099F86FF00B00A8E0FF2F10D00D2F0ED94C
:1010F0004FF407725249534804F08CF8564804F0F4
:1011000089F8524804F086F86FF00B0095E02A4603
:1011100041460DF15A00FFF799F920AB1D44002319
:1011200005F8263CADF858709DF89C30003318BF88
:1011300001238DF87B308DF85540032C3CD133785A
:10114000013BDBB28DF81430032B10D940F233226F
:101150003B493C4804F05EF89DF814103F4804F009
:1011600059F83A4804F056F86FF00B0065E07278D1
:10117000531E8DF8153002F0EF030B2B10D040F208
:101180003A222F492F4804F045F89DF815103448AD
:1011900004F040F82D4804F03DF86FF00B004CE0EF
:1011A000B11C0DF11600FFF751F9737820AA134412
:1011B000002203F86A2C36E0022C1BD13046FFF7E0
:1011C00057F9431E9BB23F2B0ED940F249221C49CE
:1011D0001C4804F01FF8234804F01CF81B4804F0D6
:1011E00019F86FF00B0028E0421C314605A8FFF704
:1011F0002DF918E0042C05D13E22314605A8FFF751
:1012000025F910E0012C0ED040F259220C490D486E
:1012100004F000F8144803F0FDFF0C4803F0FAFF57
:101220006FF00B0009E000230293019300936C23FD
:1012300005AA28210120FFF7B7F920B0BDE8F08109
:1012400050EE400088EB4000C4EF4000A00F420089
:10125000D8EF4000E8EF4000FCEF400008F040000D
:1012600024F0400040F040005CF0400010B582B037
:1012700000240194BDF810400094FFF7CDFE02B0A9
:1012800010BD00BF0020704770B582B004464FF417
:10129000A55500262146284600F032FA4CB10196A9
:1012A00001A9284600F028FA0028F3D1019B9C42AE
:1012B000F0D1002002B070BD2DE9F04782B00120CE
:1012C000FEF77AFF01A9012000F016FA814658B115
:1012D00072223B493B4803F09DFF3B4803F09AFFD5
:1012E0003A4803F097FF66E000240127384D394E55
:1012F000DFF8CC80019941F00201384600F000FA95
:101300003846FEF759FF6946286800F0F5F910B92C
:10131000009B002B39D10E232B603846FEF74CFF83
:101320006946286800F0E8F908B9009B6BBB1323F5
:101330002B603846FEF740FF6946286800F0DCF96C
:10134000824610B396221E491E4803F063FF2248CE
:1013500003F060FF1D4803F05DFFD1462BE0022043
:10136000FEF72AFF6946286800F0C6F9009B13F0D3
:10137000040F0AD1AA224146124803F04BFF174836
:1013800003F048FF114803F045FF009B13F0040FE2
:1013900011D10134A6FB04235B0803EB43039C42F9
:1013A000DDD0019941F00201384600F0A9F9009B17
:1013B00013F0040F9ED0484602B0BDE8F08700BF8E
:1013C000B4F1400088EB4000C4F14000A00F42009F
:1013D0009C004020ABAAAAAAE4F1400004F240001D
:1013E00000B583B001A941F2084000F085F9E0B9E9
:1013F000019941F48071019141F2084000F080F9B7
:10140000B0B901A94FF4D05000F076F998B901991C
:1014100041F4803101914FF4D05000F071F900286F
:1014200014BF6FF00500002007E06FF0050004E036
:101430006FF0050001E06FF0050003B05DF804FBFC
:1014400010B582B0244B1C68002C40D119464FF4D3
:10145000805000F051F918B100221F4B1A6038E09B
:1014600001A941F2F43000F047F918B100221A4BFB
:101470001A602EE0184B1B68184A934206D1019B54
:10148000012B1DD00132144B1A6019E0144A93420B
:1014900009D1019B032B13D0042B0CBF0132114A3D
:1014A0000D4B1A600CE0104A934209D10A494FF4DF
:1014B0006C1000F021F918B10022074B1A6008E007
:1014C000054A136823F4702343F4A0231360024BEE
:1014D0001C68204602B010BDCC194020A0021000AC
:1014E000B0021000B2021000F0001000F8B507467C
:1014F00041F214040125204600F0FAF8002803DB2D
:101500002846FEF759FEF6E7214800F0F1F810F002
:10151000010F0BD101264FF00C151E4C3046FEF783
:101520004BFE284600F0E4F8A042F7D1022F0BD181
:1015300019491A4800F0E4F84FF4801141F28C0088
:1015400000F0DEF8002410E0032F0AD112491348FE
:1015500000F0D6F8002141F28C0000F0D1F8002410
:1015600003E0042F14BF00248024FFF769FFC0F3B9
:101570000B00B0F5687F0CBF44F002002046FFF777
:1015800083FE07494FF00C1000F0BAF80020F8BDB8
:10159000BC0702009ED0AD107DD51C3CAC070200FC
:1015A000612F52EF30B583B041F28C030193184B99
:1015B00000930238C0B2012812D8164B0193A3F150
:1015C0002253A3F51113A3F2E953009308E0284630
:1015D000FEF7F2FD019800F08BF8013C04D111E018
:1015E0004FF0FF3400200225009B9842EFD1009A73
:1015F000074B9A4209D1002141F28C0000F080F89B
:10160000002003E06FF0040000E0002003B030BDD4
:1016100036265302AC07020070B582B002A900233F
:1016200041F8043D4FF4A05000F066F858B140F284
:101630002F222549254803F0EDFD254803F0EAFD5A
:10164000244803F0E7FD019921F4806101914FF4F2
:10165000A05000F055F8054668B140F235221A490D
:101660001A4803F0D7FD1C4803F0D4FD194803F0D5
:10167000D1FD284626E00A244FF4A05601A93046A1
:1016800000F03AF8054668B14FF40F720E490F4862
:1016900003F0C0FD114803F0BDFD0E4803F0BAFD94
:1016A00028460FE0019911F4806F0AD021F480617F
:1016B0000191304600F024F8631E13F0FF04DDD1E1
:1016C00000E0002002B070BDA8F1400088EB4000AF
:1016D00050F24000A00F42006CF2400088F240003F
:1016E00008B5FEF72BFE08BD08B5FEF7ADFE08BD38
:1016F00008B500F0AFF908BD08B500F049F908BD1C
:1017000008B500F0B1F908BD2DE9F8430746894650
:101710001546124BB3F80080A8F108081FFA88F8A4
:10172000424508D80026AAB209EB0601384600F067
:10173000EBF903460FE044460026424609EB06015A
:10174000384600F0E1F9034628B92D1B264427440A
:10175000A542F2D8E7E71846BDE8F8839800402094
:101760002DE9F843074689461546124BB3F8008029
:10177000A8F108081FFA88F8424508D80026AAB23E
:1017800009EB0601384600F011FA03460FE0444623
:101790000026424609EB0601384600F007FA0346E8
:1017A00028B92D1B26442744A542F2D8E7E718465E
:1017B000BDE8F8839800402030B583B0044602A904
:1017C000002341F8043D2348FFF796FF0546019AA0
:1017D000214B9A4205D101A941F24800FFF78CFF45
:1017E0000546019B1A0C1112E171C2F3031121721B
:1017F00002F00F0262721A122271C3F303126271B5
:1018000003F00F03A371FFF71BFE20602279A37979
:1018100003F00F0343EA022263791B01DBB2134397
:10182000E179627A02F00F0242EA0121227A120182
:10183000D2B20A4341F230318A4288BF6FF00C05C0
:1018400041F22F3293428CBF28466FF00C0003B058
:1018500030BD00BFAC070200C3C15DD738B530B1A1
:101860000478631EDBB2042B28BF012400E00124AE
:101870000020FFF735FF054660B14FF492721C4916
:101880001C4803F0C7FC1C4803F0C4FC1B4803F0D1
:10189000C1FC2BE01A4803F0BDFCFFF7D1FD014667
:1018A000184803F0B7FC154803F0B4FC2046FFF7D6
:1018B0001DFE0546C0B92046FFF774FE054698B9DF
:1018C000023CE4B2012C11D9FFF78AFD054668B14C
:1018D0004FF4AE720649074803F09CFC0A4803F037
:1018E00099FC064803F096FCFFF7FEFE284638BD3B
:1018F000E4F2400088EB400000F34000A00F4200FB
:1019000070EE40001CF340002CF3400010B5FFF7D0
:1019100083FE68B104464FF4BA721749174803F0C2
:1019200079FC174803F076FC164803F073FC21E0BD
:10193000002000F001FD044660B140F27B120E4928
:101940000E4803F067FC104803F064FC0D4803F0F8
:1019500061FC0FE0FFF7C8FE044658B140F2811267
:101960000549064803F056FC084803F053FC0548B7
:1019700003F050FC204610BDF0F2400088EB400020
:101980004CF34000A00F42006CF3400090F3400085
:1019900030B587B00C46FE2809D809238DF81030E1
:1019A0008DF811000223ADF80C30012513E08023DF
:1019B0008DF81030030E8DF81130030C8DF81230B5
:1019C000030A8DF813308DF8140004258DF8155096
:1019D0000623ADF80C3004AB029301A90120FEF7F9
:1019E000D9FC50B9ADF80C5001A9FEF7D3FC002882
:1019F0000CBF00206FF005000CE062221149124874
:101A000003F008FC114803F005FC114803F002FC48
:101A10006FF00500012D03D19DF8103023600EE01A
:101A20009DF811209DF812301B0443EA02239DF813
:101A3000102013439DF8132043EA0263236007B08C
:101A400030BD00BFACF3400088EB4000F0F3400035
:101A5000A00F420000B583B001A9FFF799FF0198DC
:101A600003B05DF804FB00BF00B589B0FE280AD8BA
:101A700019238DF804308DF805008DF80610032326
:101A8000ADF81C301EE090238DF80430030E8DF865
:101A90000530030C8DF80630030A8DF807308DF8F9
:101AA000080004238DF809308DF80A100B0A8DF810
:101AB0000B300B0C8DF80C30090E8DF80D100A232D
:101AC000ADF81C3001AB069305A90120FEF762FCBE
:101AD00068B1A8220849094803F09CFB084803F0B4
:101AE00099FB084803F096FB6FF0050000E000202A
:101AF00009B05DF804FB00BFC8F3400088EB40006C
:101B00000CF44000A00F420030B587B00D461446DB
:101B100002238DF80430030E8DF80530030C8DF888
:101B20000630030A8DF807308DF80800130A8DF887
:101B300009308DF80A2001AB04930723ADF8143067
:101B400003A90120FEF726FC68B1D02212491348F0
:101B500003F060FB124803F05DFB124803F05AFBF0
:101B60006FF0050016E00495ADF8144003A90020BD
:101B7000FEF710FC68B1DA220749084803F04AFB77
:101B8000094803F047FB074803F044FB6FF00500EA
:101B900000E0002007B030BDDCF3400088EB4000DF
:101BA0000CF44000A00F42001CF4400000B587B0C8
:101BB00012238DF81030030E8DF81130030C8DF8C0
:101BC0001230030A8DF813308DF81400130A8DF8C3
:101BD00015308DF8162004AB019302910723ADF860
:101BE0000C30ADF80E2069460220FEF7D3FB70B131
:101BF00040F205120849094803F00CFB084803F0BD
:101C000009FB084803F006FB6FF0050000E0002028
:101C100007B05DF804FB00BF28F4400088EB4000EB
:101C20000CF44000A00F42002DE9F84FBDF8284009
:101C3000002C4AD081460E4693469846030124491B
:101C4000CB58002B41D001EB00139B889BB2002B9B
:101C50003BD001EB00139B7ADBB2012B35D1F48032
:101C600001EB0017DFF878A0BB88E31A1BB2002B4A
:101C700003DDBD88ADB2002301E0254601233968AC
:101C80002A464046FEF714FFA8B93B683360B5808A
:101C9000F3885B1BF380DAF800302BB1DAF8003000
:101CA0003246594648469847641BA4B2A844002CC3
:101CB000DAD1BDE8F88F074803F0ACFA21460648B0
:101CC00003F0A8FA054803F0A5FABDE8F88F00BFB5
:101CD000702C402070EE40003CF44000A00F420009
:101CE000202D4020F0B599B01446412819D1002389
:101CF000042207A92046FEF7DBFE002840F04081C1
:101D00009DF81D308DF80C309E4B1B68002B00F0A9
:101D100037819C4B1B6803AA01219DF91C00984741
:101D20002EE10D46422819D10023042207A920469E
:101D3000FEF7BEFE002840F023819DF81D308DF88F
:101D40000C30904B1B68002B00F01A818D4B1B68E8
:101D500003AA02219DF91C00984711E143283FD1B5
:101D600000230C220DEB02012046FEF7A1FE002805
:101D700040F006819DF91530002B19DB824A02EBF9
:101D800003120021D1720121917280490A88013227
:101D900092B20A800A8892B21AB90A88013292B2C3
:101DA0000A807A4A118889B2774A02EB0312D180FD
:101DB0008DF81C300223ADF82030BDF80E30ADF8A0
:101DC0002230049B09936F4B1B68002B00F0D880D6
:101DD0006C4B1B6807AA04219DF914009847CFE0BB
:101DE000442801D04B2824D10023042207A92046EF
:101DF000FEF75EFE002840F0C3809DF91C008DF8C0
:101E00000C009DF91D308DF80D303BB9BDF81E302A
:101E1000083B9BB25C4A02EB00121381594B1B68D2
:101E2000002B00F0AD80574B1B6803AA0521984793
:101E3000A6E04A2813D10023442207A92046FEF732
:101E400037FE002840F09C80514B1B68002B00F0AF
:101E500097804F4B1B68179907A8984790E0A0F10F
:101E60004603DBB2072B4DD8852222FA03F313F089
:101E7000010F47D0482814BF062609260023102248
:101E800003A92046FEF714FE002879D19DF9180019
:101E9000BDF81A103C4A02EB001200231373BDF97F
:101EA00014E0BDF81630BDF80E70ADF82670049F32
:101EB0000A97D28892B291421BD1BEF1000F0ADD7F
:101EC000AE4508DA1FFA8EF200922344324607A983
:101ED000FFF7AAFE54E0ADF820E000230793294B5A
:101EE0001B68002B4CD0274B1B6807AA314698472C
:101EF00046E0102D44D90123002211461046FEF77A
:101F0000D7FD3DE000F0FD03452B01D04C2822D148
:101F1000472814BF072508250023082207A92046C3
:101F2000FEF7C6FD60BB9DF91C00BDF82020BDF882
:101F30001E30ADF80C30144B03EB0013DB889BB262
:101F40009A421DD10F4B1B68D3B10E4B1B6803AADD
:101F50002946984714E0522812D10123142207A9D8
:101F60002046FEF7A5FD58B90A4B089A1A601B686F
:101F700033B1084B1B689DF82C20099907989847A6
:101F800019B0F0BD202D4020702C4020D2194020E7
:101F9000282D4020242D402008B50A4B1B7813F033
:101FA000FF0F0ED1B02200210748FEF759FA07496A
:101FB0000220FEF703FE0122024B1A700022044B9E
:101FC0001A8008BDD0194020702C4020E51C40002C
:101FD000D2194020024B1860024B1960704700BFB5
:101FE000202D4020282D402070B586B002284BD1EE
:101FF00001294CD002294DD04FF0FF3458E025463E
:1020000000EB04139B7A13F0FF0F36D12A4800EB44
:102010000410164610220021FEF722FA264B03EB8D
:10202000051301229A72254A138801339BB213804B
:1020300013889BB21BB9138801339BB213801F4BCB
:102040001A8892B21C4B03EB0513DA8064B216F0C7
:10205000010F2DD006AA02F8044D174B03EB05150E
:102060002123EB7200230293019300930423502158
:102070000220FEF799FA1BE00F480134E4B28C42CB
:10208000BDD34FF0FF3413E04FF0FF3410E00721D1
:10209000002401E00B2107242546074B03EB041322
:1020A0009B7A13F0FF0FE7D1034800EB0410B0E771
:1020B000204606B070BD00BF702C4020D2194020D1
:1020C000002838DB002936D01F4B03EB00139B7A26
:1020D000DBB2002A32D0012B30D130B589B01A4B97
:1020E00003EB0013DB7A13F0010F07D0164B03EB61
:1020F0000013DB7A8DF81D304B2500E044250446A3
:102100008DF81C00082205A8FEF7A0F90E4800EB88
:102110000410C388ADF81E3000230293019300938E
:102120000C2305AA29460220FEF73EFA002818BF14
:102130006FF0080005E06FF0050070476FF00500D4
:10214000704709B030BD00BF702C402030B589B059
:102150000C46003118BF0121B2F5AF6F88BF0021D6
:10216000002936D0002834DB1D4B03EB00139B7A8B
:10217000DBB2012B30D18DF81000ADF81220184BD6
:1021800003EB0013DB88ADF81C300728B4BF5025E3
:102190004425134B03EB0013DB7A13F0010F06D039
:1021A0000F4B03EB00100589ADB24C2100E0452137
:1021B00002950192009410230DEB030241F080017F
:1021C0000220FEF7F1F900280CBF00206FF00D008F
:1021D00004E06FF0050001E06FF0050009B030BDCC
:1021E000702C4020002918BF002A45D070B586B059
:1021F0000E461546002836DB214A02EB0012927A81
:10220000D2B2012A32D11E4C01016218665095806B
:10221000127B12F0FF0F2CD104EB0012012111737D
:10222000D27A0A40002A0CBF46214D211BB94FF03B
:10223000FF33049300E004938DF81400104B03EB7C
:102240000010C388ADF81630002302930193009369
:10225000082304AA0220FEF7A7F900280CBF0020DB
:102260006FF00D0006E06FF0050003E06FF0050071
:1022700000E0002006B070BD6FF00500704700BFA1
:10228000702C402030B587B000282EDB1B4B03EBB1
:1022900000139B7ADBB2012B2AD104468DF814007F
:1022A000164B03EB0013DA88ADF8162000229A7261
:1022B000DA80DB7A03F001039342029201920092EA
:1022C0004FF0040305AA0CBF49214E210220FEF75E
:1022D0006BF9051E18BF6FF0080510220021074892
:1022E00000EB0410FEF7BCF804E06FF0050501E018
:1022F0006FF00505284607B030BD00BF702C4020A8
:1023000010B584B00446FEF7B3F8C3B2402B0ED824
:10231000002202920192009201332246CA21022039
:10232000FEF742F9002818BF6FF0080001E06FF0D7
:10233000050004B010BD00BF30B583B00546FFF7FF
:102340007FF8C0F30B00B0F5687F52D301A941F2CA
:102350001040FFF7D1F9044600284BD1274B019AD2
:10236000134027491943019141F21040FFF7C8F982
:10237000D5B100212348FFF7C3F9AB212248FFF76D
:10238000BFF901212148FFF7BBF900212048FFF7E1
:10239000B7F981211F48FFF7B3F91F4D2846FFF712
:1023A000A7F90128FAD119E000211648FFF7A8F98A
:1023B000B9211548FFF7A4F901211448FFF7A0F946
:1023C00000211348FFF79CF981211248FFF798F983
:1023D000114D2846FFF78CF90128FAD10749019BD6
:1023E000194041F48031019141F21040FFF788F922
:1023F00000E00024204603B030BD00BFFF8F88F806
:1024000000101101080201000C0201001402010079
:102410001C020100040201001802010008B5104866
:1024200002F0B2FB3E21002001F036FF01F05EFF1A
:102430000028FBD001F062FF0A4A0B4B9A6201F0C0
:1024400065FF0028FBD0022001F0D4FE002001F03F
:10245000EFFE02F011FB024802F096FB08BD00BF40
:1024600000A3E111013F182000060E4010B50446FC
:1024700001F0AAFF80232360636843F001036360D7
:10248000636843F010036360636823F08003636054
:102490000021204601F0ACFF636823F00203636073
:1024A000636823F0040363600021204601F0ACFF61
:1024B00010BD00BFF8B504460D4616461349184630
:1024C00002F014F8074601231A462968204602F054
:1024D0002FF800222968204601F0FEFFFAB2296891
:1024E000204602F00FF808222968204601F0D2FFAA
:1024F00072082968204601F0ADFF86F0010202F063
:1025000001022968204601F0B5FFF8BD00A3E111E2
:1025100008B5436813F0040F05D009680F290AD8DD
:1025200001F066FF08BD0B68032B04D80121994018
:10253000C94301F05DFF08BD22B900207047013B8F
:1025400005D10FE010B41446013943F6992302690E
:1025500012F0020FF3D011F8013FC360013CF4D137
:10256000002001E06FF002005DF8044B704700BFEF
:1025700022B900207047013B08D11CE070B4154619
:102580000139FF2640F2012443F69923026912F033
:10259000020FF0D0C66043F6992301E0013B0DD055
:1025A000026934EA0202F9D1836801F8013F013D72
:1025B000EAD1002004E06FF0020001E06FF00200B9
:1025C00070BC704790B92DE9F0410C469046002A46
:1025D0000FDD8F18084E094D306821462B6898474B
:1025E0000134A742F8D14046BDE8F0814FF0FF30FA
:1025F00070470020BDE8F081342D40202C2D402074
:102600000138022815D82DE9F0410E4614469AB13A
:102610000D46DFF838800C4FD8F8000015F8011B84
:102620003B68984700280ADBA81B013CF4D1BDE8B1
:10263000F0814FF0FF3070470020BDE8F0814FF08F
:10264000FF30BDE8F08100BF302D4020342D402008
:1026500070B582B005460C4600230193294B984281
:1026600007D11E462146304602F062F80028F9D113
:1026700015E0254B984207D11E462146304602F010
:1026800057F80028F9D115E0204B984207D11E4693
:102690002146304602F04CF80028F9D117E01C4BD7
:1026A0009D4207D11E462146304602F041F80028DF
:1026B000F9D119E0174B9D4209D11D4601A92846C1
:1026C00002F0BEF80028F9D1019B237018E0124BEC
:1026D0009D4209D11D4601A9284602F0B1F8002803
:1026E000F9D1019B23700BE00C4B9D4208D11D4694
:1026F00001A9284602F0A4F80028F9D1019B237013
:1027000002B070BD00080E40000A0E40001A0E40D4
:10271000001C0E40004002400080024000C0024009
:1027200038B50C462A4B984208D11D46214628460A
:1027300001F0F4FF0028F9D1012038BD254B984263
:1027400008D11D462146284601F0E8FF0028F9D1AE
:10275000012038BD204B984208D11D46214628460D
:1027600001F0DCFF0028F9D1012038BD1B4B984255
:1027700008D11D462146284601F0D0FF0028F9D196
:10278000012038BD164B984208D11D4621462846E7
:1027900002F04AF80028F9D1012038BD114B9842C7
:1027A00008D11D462146284602F03EF80028F9D1FE
:1027B000012038BD0C4B984208D11D4621462846C1
:1027C00002F032F80028F9D1012038BD002038BDD0
:1027D00000080E40000A0E40001A0E40001C0E4079
:1027E000004002400080024000C0024010B5244B6F
:1027F00093F90030834241D1052902D006291FD028
:1028000010BD204B1B78002B38D03AB192F9013023
:10281000002B03DB01221C4B1A7010BD1B4802F079
:10282000F9FC00231A4A1360174A1370154A1370F3
:10283000134C94F90000FFF725FDFF23237010BD12
:102840005AB1B2F90430002B07DD1168114802F0CB
:10285000C7FE0122104B1A7010BD104802F0DAFCBE
:1028600000230B4A1360084A1370064A1370044C85
:1028700094F90000FFF706FDFF23237010BD00BF91
:10288000B4004020F0254020E4214020E40D420027
:10289000EC254020D8194020D4194020000E4200D9
:1028A00070B582B00646154C4FF480652A4600216B
:1028B000204602F071FD124B0193124B00933346F8
:1028C000114A1249204602F065FE204602F0F8FE49
:1028D0000F4E002382B2214696F90000FFF736FC26
:1028E0002A460021204602F057FD00232A462146B1
:1028F00096F90000FFF776FC02B070BDEC21402095
:10290000440E4200940E42001C0E4200380E42005B
:10291000B40040202DE9F047ADF5147D00238DF87B
:102920000E328DF80D320DF22F250DF20F240DF21F
:102930004F2021462B46002203F8012F01F8012FDA
:102940008342F9D10DF10B02A74BA84813F8011FE0
:1029500002F8011F8342F9D10DF10C08A44F07F1D1
:102960000B063B464146002211F801EB13F8010B20
:10297000864518BF0122B342F6D19E4BDB6B13F4A0
:10298000006F02D0002A00F0F080002000F0A8FFC5
:10299000994A4FF496710A2001F026F9974802F0FF
:1029A00039FCDFF87C924FF07F0A0DF20F21484688
:1029B00002F044FC9DF80F127F2911D15146484680
:1029C00002F028FC9DF80E32013BDBB28DF80E328E
:1029D0009DF80E3294AA1344002203F8202CE4E759
:1029E0000D2911D19DF80E3294AA1344002203F848
:1029F000202C834802F00EFC824802F00BFCDFF82A
:102A000020924FF07F0A11E0484602F003FC9DF847
:102A10000E3294AA13449DF80F2203F8202C9DF83F
:102A20000E320133DBB28DF80E32BEE70DF20F210C
:102A3000484602F003FC9DF80F127F2911D1514640
:102A4000484602F0E7FB9DF80D32013BDBB28DF802
:102A50000D329DF80D3294AA1344002203F8402C45
:102A6000E4E70D290AD19DF80D3294AA13440022FF
:102A700003F8402C624802F0CDFB11E0484602F01A
:102A8000C9FB9DF80D3294AA13449DF80F2203F858
:102A9000402C9DF80D320133DBB28DF80D32C5E7C5
:102AA00017F8013B08F8013BB742F9D19DF80E3207
:102AB00013F0FF0F0CD00DF11601002215F8013FA5
:102AC00001F8013F01329DF80E32DBB29342F5D896
:102AD0009DF80D3213F0FF0F0ED000229DF80E323C
:102AE00003A90B44134414F8011FD97201329DF855
:102AF0000D32DBB29342F1D89DF80E328DF857308B
:102B00009DF80D328DF858300621002001F0A4FE0A
:102B1000014618B13C4802F07DFB61E03B4C214688
:102B20003B4802F077FB00231A463049204601F06B
:102B30000BFF014618B1374802F06CFB50E03348F8
:102B400001F094FE014618B1334802F063FB47E000
:102B500000234FF4007203A92C4801F097FE0146B0
:102B600088B32D4802F056FB3AE09DF857308DF8B7
:102B70000E329DF858308DF80D329DF80E3213F05C
:102B8000FF0F0CD00DF11601002211F8013F05F8DE
:102B9000013F01329DF80E32DBB29342F5D89DF829
:102BA0000D3213F0FF0F0ED000229DF80E3203A954
:102BB0000B441344DB7A04F8013F01329DF80D32D7
:102BC000DBB29342F1D88CA9144802F023FB9DF8A4
:102BD0000E12FF23009384AB02228CA8FEF746FB63
:102BE0000DF5147DBDE8F087FFFD5F00FFFF5F007E
:102BF000589D4100000E0E40BC0E4200D80E42000F
:102C0000900E4200000F4200240F420000FE5F00C1
:102C1000440F4200680F4200800F4200A40F4200A0
:102C2000FC0E420000B583B02C2802D0322816D00A
:102C300024E00B78012B05D1124802F0EBFAFEF7E5
:102C400021FB1BE0D3B9104802F0E4FA0F4802F070
:102C5000E1FA00220E4B1A70FFF75CFE0EE08B7853
:102C60004A780878C978009101460A4802F0D2FAF9
:102C70000122074B1A700848FFF742FB03B05DF8CA
:102C800004FB00BFB80F4200CC0F4200E40F42002B
:102C9000D821402000104200B800402038B5694BD0
:102CA0001B78002B40F08D806749684802F0D2FE07
:102CB0000446674802F0AEFAC4B1063465492046BE
:102CC00002F0C8FE054608B100230370624B1C6089
:102CD0002146624802F09EFA6149681C02F0BAFE81
:102CE0000446604802F096FA24B925E05E4802F0F6
:102CF00091FA38BD13345D49204602F0ABFE05461B
:102D000008B1002303705A4B1C605A4B1B7823B147
:102D10002146594802F064FC03E02146574802F07E
:102D20005FFC21464D4802F075FA5549681C02F0D7
:102D300091FE044620B940E04B4802F06BFA38BDE2
:102D4000504802F067FA1C344849204602F082FEDF
:102D500008B1002202704C4B1C604C49204602F026
:102D600079FE68B94A49204602F074FE50B94949D3
:102D7000204602F06FFE002814BF0325002502E064
:102D8000012500E00225444B1D703A4B1B7833B1FE
:102D90002146424802F024FC414B1D7005E02146CB
:102DA000404802F01DFC404B1D7021462B4802F0AC
:102DB00031FA0022234B1A7038BD0122214B1A70C0
:102DC0002EE02F49214802F045FE04462D4802F02E
:102DD00021FAFCB11C342549204602F03BFE08B123
:102DE00000220270284B1C60224B1B7823B1214625
:102DF0002A4802F0F5FB03E021462A4802F0F0FBE6
:102E00002146164802F006FA00230E4A1370274A9C
:102E1000137038BD01220B4B1A70134802F0FAF9F7
:102E2000234C4FF480652A460021204602F0B4FA74
:102E300000232A4621461F4890F90000FFF7D2F9E7
:102E400038BD00BFE52140201C104200D8194020A9
:102E5000241042002C104200F42540203010420083
:102E6000381042004C1042005C10420064104200D6
:102E7000E8214020A1004020582D4020782D4020FE
:102E80006810420078104200DC2140208C10420083
:102E9000941042009C104200E7214020982D4020D1
:102EA000B62D4020382D4020C82D4020F025402050
:102EB000EC214020B400402008B5054801F082FA1A
:102EC00010F0020F03D0034A13680133136008BDEA
:102ED00030180E40EC25402010B50D4C0021204646
:102EE00001F050FA4FF40041204601F041FA094B3D
:102EF0000822C3F88020C3F88021002183F803133F
:102F00001A604FF40031204601F052FA10BD00BFA4
:102F100030180E4000E100E010B582B004460B4BC3
:102F2000196001220A4B1A700B0E0093C1F307437C
:102F3000C1F30722C9B2074802F06CF921460648DE
:102F400002F068F9FFF7C8FF02B010BDE021402091
:102F5000E6214020A4104200C010420070B58CB0A1
:102F6000FFF75CFA00F060FA0A2001F0D7F90B20B5
:102F700001F0D4F90C2001F0D1F9102001F0CEF9C4
:102F8000112001F0CBF90E2001F0C8F9B54EB64B77
:102F90001E60B64AB64B1A60B64AB74B1A604FF479
:102FA000E1330293C02303934FF40065049500249A
:102FB000059406940E2001F0B1F9B04A02A93046FA
:102FC00001F004FC304601F027FC304601F028FCFB
:102FD000AB4E33682146986802F02CFA33682146DC
:102FE000586802F027FAA74802F014F9A64B5D6171
:102FF000C3F8A0505D66C3F890505D655D62C3F88C
:1030000080501A6F22F400621A675A6F22F400622D
:103010005A679E484FF4A07303604FF4F073436007
:103020009B4B8360C36000F0A3FC40F2DF1340F2CF
:103030003F122146204600F087FD47F6C00000F011
:103040004FFC772340F23F122146204600F07CFDE2
:1030500040F2DF1340F23F124FF4B471204600F00B
:1030600073FD8C4B00934C239C22C821502000F010
:1030700011FEFDF7C7F80394049405940694079491
:10308000854B029302A8FDF747FF20B10146834814
:1030900002F0C0F8FEE7FEF77FFF81498148FEF7A6
:1030A00099FFFFF737FC7A4800F01AFC40F23B1317
:1030B00040F23F124FF49671002000F045FD0020D1
:1030C00000F00EFC784A4FF496710A2000F08CFD57
:1030D000764E774D774C0020FDF79AFF337883B317
:1030E000754B1B786BBB754B1B7853B3744B93F9C3
:1030F0000030002B0CDA002201210220FEF774FFC1
:103100006F4B1870002803DA6E4802F083F8E2E78C
:103110000223ADF820304FF4A043ADF822306A4BC3
:103120001B680993102208A9654B93F90000FEF76C
:10313000C7FF18B1654802F06DF8CCE701225E4B7D
:103140001A702B78002B6AD0FFF7A8FD504800F0CA
:10315000C7FB40F2DF1340F23F120021084600F0A7
:10316000F3FC47F6C00000F0BBFB40F2671340F2EF
:103170003F127821002000F0E7FC554B1B7813B379
:10318000544B1A78544B53F82230009378231A4644
:10319000B4211E2000F07EFD504B00933C23A02262
:1031A00078219F2000F076FD394800F099FB4C4AC9
:1031B000DC21962000F0DCF84A4A4FF4A0713C2054
:1031C00000F012FD21E0484B1A78434B53F82230AF
:1031D000009378231A46B4211E2000F05BFD434B78
:1031E00000933C23A02278219F2000F053FD284823
:1031F00000F076FB3E4ADC21962000F0B9F83D4A0B
:103200004FF4A0713C2000F0EFFC002000F068FBC0
:10321000394A0A21084600F0E7FC00232B70236896
:103220003C2B04D0354B1B78002B3FF454AF344B70
:103230001B784BB13348FFF733FB0022304B1A7039
:103240000122234B1A7008E02F48FFF729FB0122C7
:103250002B4B1A7000221E4B1A7000232360274A42
:10326000137038E700800240342D402021274000B1
:10327000302D4020512640002C2D402080D1F008D8
:1032800000054020D4104200000E0E40B82D402012
:10329000FCFCFC0070824200252C400030114200F2
:1032A000192F4000ED27400058114200D82140203E
:1032B000D4194020EC254020F0254020E621402074
:1032C000B40040206C114200E0214020A0114200D7
:1032D000A1004020B62D4020A4004020F011420063
:1032E000582D4020982D4020C82D4020649D41003D
:1032F000782D4020382D4020C8114200E421402084
:10330000CF004020DC114200E81142002DE9F84FC7
:1033100002EBC2024FEA421A144D5544CAEB000AAE
:1033200001F1300B0F4618E02B78234113F0010F09
:1033300003D03919304600F0EFFB0134082CF3D1EB
:103340000135454503D0002409EB0506ECE7AAF159
:10335000300A083745465F4505D005F13008034B74
:10336000C3EB0A09EFE7BDE8F88F00BFA0074500EF
:103370002DE9F84304460F46104601F01FFF01F007
:10338000CDFE01F0C7FD8046894625A3D3E9002381
:1033900001F074FE70B10B2239462046FFF7B6FFEC
:1033A00000221D4B4046494601F054FC01F08EFEC0
:1033B000464208E00022184B4046494601F04CFCCA
:1033C00001F084FE064604F12800A6F10A03592BF9
:1033D00016D8124D85FB0635F317C3EBA505EAB2E7
:1033E0003946FFF793FF05EB8505A6EB4502D2B200
:1033F000394604F15000FFF789FF04F1780005E039
:10340000F2B23946FFF782FF04F150000A22394632
:10341000FFF77CFFBDE8F8830000E03F6766666663
:103420008DEDB5A0F7C6B03EF8B54FF40042A14B04
:103430005A60BFF34F8FBFF36F8F9F4B0022C3F8CB
:1034400050225A6942F400325A61BFF34F8FBFF3E2
:103450006F8FD3F88060C6F34E3506F00707043748
:10346000C6F3C906B6FA86F000F01F00BFF34F8F0F
:103470001C46334605FA07F103FA00F20A43C4F882
:103480006022013BB3F1FF3FF6D1013DB5F1FF3FB3
:10349000EFD1BFF34F8F884B5A6942F480325A61A3
:1034A000BFF34F8FBFF36F8F844A85495160A1F5F9
:1034B00080715160BFF34F8FBFF36F8FD3F89022AD
:1034C00022F00102C3F89022D3F8942222F00102E4
:1034D000C3F89422BFF34F8FBFF36F8F0A2000F021
:1034E0001DFF0B2000F01AFF0C2000F017FF10202A
:1034F00000F014FF112000F011FF724E4FF480779E
:103500003761C6F8A07037636F4C4FF40065656192
:10351000C4F8A0506566C4F8905065652562C4F88B
:103520008450236F23F400632367636F23F40063E5
:103530006367C4F8C050C4F8D450C4F8B0504FF416
:1035400000132366C4F8903063656362C4F880306A
:10355000226F22F400122267626F22F40012626767
:1035600063605A4AD2F8143143F01003C2F81431A0
:1035700002F5B22210231366C2F8903053655362ED
:10358000C2F88030116F19431167516F19435167A9
:10359000536008222266C4F8902062656262C4F813
:1035A0008020216F21F008012167616F21F008015F
:1035B000616762602366C4F8903063656362C4F833
:1035C0008030226F22F010022267626F22F0100218
:1035D0006267636000234FF400524FF06051304641
:1035E00000F04CFC00234FF080424FF06051304619
:1035F00000F044FC0123FF224FF00061304600F050
:103600003DFC01233F224FF00061314800F036FCC1
:1036100001234FF4C0324FF00061204600F02EFC31
:1036200001233A464FF00061304600F027FC0123A9
:103630002A464FF00061304600F020FC01234FF491
:1036400000224FF00061234800F018FC00234FF4E3
:1036500000724FF08051304600F010FC4FF40071C2
:10366000304600F08FFB4FF08051742000F08AFC50
:103670004FF08051752000F085FC4FF0805176208E
:1036800000F080FC4FF080517B2000F07BFC4FF07D
:103690006051182000F076FC4FF06051062000F0D9
:1036A00071FC4FF06051532000F06CFC532000F08F
:1036B0004DFCF8BD50180E4000ED00E0000C0E402F
:1036C0000C08005A00120E40000E0E400080084008
:1036D00000160E4000140E4030B40468B4F5A07F0C
:1036E00002D340F23F1404601468B4F5A07F02D303
:1036F00040F23F1414600C68B4F5F07F02D340F23E
:10370000DF140C601C68B4F5F07F02D340F2DF14C4
:103710001C6004681568AC4201D9056014600A6831
:103720001868824201D908601A6030BC704700BF37
:1037300000B583B0062000F017FC002303222C21E3
:10374000084800F06BFE00230193019BFE2B05D877
:10375000019B01330193019BFE2BF9D903B05DF866
:1037600004FB00BF0080004070B582B005460E46E5
:103770001446062000F0F8FB0023032229461248D5
:1037800000F04CFE00230193019BFE2B05D8019B0A
:1037900001330193019BFE2BF9D994B1062000F06F
:1037A000D5FB224631460848FEF7C6FE00230193AA
:1037B000019B5E2B05D8019B01330193019B5E2B7E
:1037C000F9D902B070BD00BF0080004030B583B0B1
:1037D00004460D46062000F0B9FB2A46214608485B
:1037E000FEF7AAFE00230193019BFE2B05D8019B47
:1037F00001330193019BFE2BF9D903B030BD00BF0B
:1038000000800040014628B97047013BFDD191423C
:1038100001D87047014A024BF7E700BFA1860100BB
:10382000A086010000B583B018B1E8238DF80730F9
:1038300002E048238DF8073001220DF10701362000
:10384000FFF792FF03B05DF804FB00BF00B585B041
:10385000ADF80E00013A0244ADF80C20ADF80A10A4
:10386000013B1944ADF80810030A8DF804308DF8B7
:103870000500C2F307238DF806308DF807200422D7
:103880000DEB02012A20FFF76FFF002211461046C0
:10389000FFF76AFF9DF80B308DF804309DF80A3071
:1038A0008DF805309DF809308DF806309DF8083008
:1038B0008DF8073004220DEB02012B20FFF754FF97
:1038C000002211461046FFF74FFF05B05DF804FBDC
:1038D00008B5002211462920FFF746FF08BD00BFAA
:1038E00010B4C0F30744C0F30721064B03F5707210
:1038F0001C705970987003339342F9D15DF8044BF2
:10390000704700BFF825402000B585B0ADF806002F
:10391000ADF80410030A8DF80C30C0B28DF80D001C
:103920008DF80E308DF80F00042203A92A20FFF72E
:103930001BFF002211461046FFF716FF9DF80520D9
:103940008DF80C209DF804308DF80D308DF80E2088
:103950008DF80F30042203A92B20FFF705FF00226A
:1039600011461046FFF700FF05B05DF804FB00BFED
:103970002DE9F04387B08146032406AF47F8084D90
:10398000634E3046FEF772FD00250095614B2246DE
:1039900039463046FEF78EFD2A462146304600F075
:1039A00079FD39463046FEF7B3FD01203060706185
:1039B0002A462946FFF7D8FEC820FFF723FF2A46EC
:1039C00029461120FFF7D0FEC820FFF71BFF8123F7
:1039D0008DF80A308DF80B5001274FF0FB082E466A
:1039E0003A460DF10A014046FFF7BEFE9DF80A3047
:1039F00001338DF80A300396039BFE2B05D8039BF9
:103A000001330393039BFE2BF9D932463146D32071
:103A1000FFF7AAFE062000F099FA3A460DF10901D7
:103A20003B48FEF7A5FD0396039BFE2B05D8039BA1
:103A300001330393039BFE2BF9D9013C9DF8093018
:103A4000E20093401D433A460DF10B014046FFF75B
:103A50008BFE0396039A40F6FE739A4206D81A46E6
:103A6000039B01330393039B9342F9D9002CB7D1F5
:103A700049F288439D4246D106AC482304F8013DF3
:103A8000012221463620FFF76FFE6420FFF7BAFEC1
:103A900004238DF8173001222146CF20FFF764FE62
:103AA0006420FFF7AFFE06238DF817300122214670
:103AB0003A20FFF759FE6420FFF7A4FE00221146CA
:103AC0001320FFF751FE6420FFF79CFEFFF700FF75
:103AD0006420FFF797FE0020FFF7A4FE6420FFF7A5
:103AE00091FEB9F80430B9F8002000210846FFF72C
:103AF000ADFED9F80800FFF7F3FE00210846FFF7F6
:103B000003FF002000E0012007B0BDE8F08300BF04
:103B100000800040002D3101B0F5A07F0FD2B1F53B
:103B2000F07F0CD208B589B280B2FFF7EDFEFFF747
:103B3000FFFD03210348FFF749FE002008BD0120D7
:103B4000704700BFF8254020F0B585B00390029182
:103B5000019204AA42F8103D134601AA02A903A843
:103B6000FFF7BAFDBDF80C00BDF80810009B01334B
:103B70005B1A019A0132121A9BB292B2FFF766FEEB
:103B8000FFF7D6FD039D019B591B009B0133029D4E
:103B90005D1B01FB0555124CA4FB0534240A08D01B
:103BA000104F4FF4707631463846FFF70FFE013C58
:103BB000F9D10B49A1FB0531090A01EB8101A5EB04
:103BC000811101EB41010748FFF700FE4FF4F0734C
:103BD0004FF4A07200210846FFF738FE05B0F0BD93
:103BE000CDCCCCCCF82540202DE9F04F85B003900A
:103BF000029101921378002B46D000900A2B05D138
:103C0000029B10330293039B009337E003EB830383
:103C10001F4A02EB8306A6F27F26009A02F10A0BE6
:103C20009046029A02F1070902F10F0A072437466B
:103C30003D4616F8013C234113F0010F04D0C4EBBC
:103C400009014046FFF768FF013CB4F1FF3FEFD1A7
:103C500007242B78234113F0010F04D0C4EB0A0191
:103C60004046FFF759FF013C012CF2D1023608F122
:103C70000108C345DAD1009B0C330093019A12F876
:103C8000013F0192002BB9D105B0BDE8F08F00BF14
:103C90002015450000B585B003900291013A10440B
:103CA0000190013B194404AB43F8101D01AA02A97D
:103CB00003A8FFF711FDBDF80C00BDF80810009B2C
:103CC00001335B1A019A0132121A9BB292B2FFF7CA
:103CD000BDFD039A019B991A029A009B9B1A03FB54
:103CE00001F202EB420206992C20FFF73DFD4FF452
:103CF000F0734FF4A07200210846FFF7A7FD05B04E
:103D00005DF804FB08B5120202F4706241F08061B4
:103D100011434EF0F9F9002008BD00BFA1F10E03D8
:103D2000012B1FD910B582B0EFF31083B3FA83F3E0
:103D30005B09019372B6BFF35F8F00240C4B1C70BC
:103D4000019C0C4B03EA022242F0B442C9B2114377
:103D50004EF0D2F94CB10122054B1A70BFF35F8FC0
:103D600062B602E04FF0FF30704702B010BD00BFF6
:103D7000A000402000FFFF000AB1416670470166C5
:103D8000704700BF016370474264B1F1C05F2FD03C
:103D900007D8B1F1006F14D0B1F1805F1ED039B9EE
:103DA0007047B1F1205F37D004D8B1F1005F29D05E
:103DB00042607047B1F1405F2ED0B1F1605F2BD00F
:103DC000F6E710B4046F016FD34321401940016737
:103DD000446F416F21400B4043671AE0036F134368
:103DE0000367416F436F0B4023EA02034367DFE73A
:103DF000016F036F0B4023EA02030367436F134312
:103E00004367D5E7036F13430367436F1343436768
:103E1000CEE742605DF8044B704700BF416412F08A
:103E2000010F01D0416600E0016612F00A0F01D0D7
:103E3000016200E0416212F0020F02D0C0F880106F
:103E400004E012F0080F01D0C0F884104161016055
:103E5000704700BF10B44164019C0CB1416600E0A2
:103E600001660BB1016500E041650AB1016300E044
:103E70004163016101605DF8044B704770B582B029
:103E8000054616461C46B1F1005F14D009D8B1F1C1
:103E9000805F10D0B1F1C05F0DD0B1F1006F2DD1B6
:103EA00009E0B1F1405F19D0B1F1605F16D0B1F116
:103EB000205F0DD022E032462846FFF765FF14F060
:103EC000010F02D06E66012019E02E66012016E077
:103ED0001A463146FFF7A2FF012010E004F001036B
:103EE0000093C4F38003B1F1605F14BF002201228C
:103EF00031462846FFF7AEFF012000E0002002B067
:103F000070BD00BF12F0100F12D0C0F8B01012F048
:103F1000200F02D0C0F8D41001E0C0F8D01012F089
:103F2000400F02D0C0F8C0107047C0F8C4107047EE
:103F3000C0F8B410704700BFC36C0164704700BF85
:103F400041647047C06C7047806C7047054B03EB51
:103F500050135B0200F01F00012202FA00F0186308
:103F6000704700BF07072000054B03EB50135B02AF
:103F700000F01F00012202FA00F05863704700BFF2
:103F80000707200070B582B00D46474C04EB501473
:103F9000640201F0F043B3F1005F4DD009D8B3F1F2
:103FA000805F23D0B3F1C05F33D0B3F1006F77D11E
:103FB00009E0B3F1405F5DD0B3F1605F5AD0B3F177
:103FC000205F4CD06CE000F01F0001268640324696
:103FD0004FF000612046FFF7D7FE15F0010F02D029
:103FE000666601205DE0266601205AE000F01F00B1
:103FF0000126864032464FF080512046FFF7C4FE2E
:1040000015F0010F02D0666601204AE02666012005
:1040100047E000F01F000126864032464FF0C051B5
:104020002046FFF7B1FE15F0010F02D066660120B1
:1040300037E02666012034E000F01F0001268640AC
:1040400032464FF000512046FFF79EFE15F0010F5B
:1040500002D06666012024E02666012021E000F0FF
:104060001F0101262A4606FA01F12046FFF7D6FE77
:10407000304616E005F0605200F01F01012605EA07
:1040800006030093C5F38003B2F1605F14BF002202
:10409000012206FA01F12046FFF7DCFE304600E07F
:1040A000002002B070BD00BF070720002DE9F041DD
:1040B00004468846FFF746FF05462046FFF744FFC3
:1040C000054013D00A4C04F160062368434508D12B
:1040D0006168294205D0E36840469847636825EA4D
:1040E0000305B44202D01034002DEED1BDE8F081BA
:1040F000BC294020F8B50C4C2468062C11D8154674
:104100000A4F2601BA19B951556093600699D160DA
:104110000134054A14601A462946FFF7F3FE0020D1
:10412000F8BD0120F8BD00BFB8294020BC294020BF
:1041300008B50A210148FFF7B9FF08BD000E0E407F
:1041400008B50B210148FFF7B1FF08BD00100E4074
:1041500008B50C210148FFF7A9FF08BD00120E4069
:1041600008B510210148FFF7A1FF08BD00140E405B
:1041700008B511210148FFF799FF08BD00160E4050
:10418000F8B506460D461446FFF7DEFE07464FF02B
:10419000FF313046FFF7D4FE3046FFF7D3FE5FFA1B
:1041A00085FE0EF01F03012202FA03F368090E498F
:1041B00001EB8002C2F88030C2F88031002D07DAAE
:1041C0000EF00F0E6401E4B2084A02F80E4003E05C
:1041D0006401E4B2064A545541F82030394630466D
:1041E000FFF7AAFEF8BD00BF00E100E014ED00E01B
:1041F00000E400E0032807D0042808D002280CBF00
:104200004FF48072002204E04FF4407201E04FF45A
:10421000007206490B6B23F4407313430B630A4689
:10422000936E13F0080FFBD0704700BF00060E40DE
:10423000184A136B23F0700318431063936E13F046
:10424000080F03D009E0013B03D11EE04FF4805377
:1042500010498A6E12F0080FF5D00E4A136B23F046
:10426000030343F002031363906E10F0080004D0C0
:1042700000207047013B03D109E04FF4805305490A
:104280008A6E12F0080FF5D07047012070470120A8
:10429000704700BF00060E4038B10E490B6A0E4A47
:1042A0001A400E4B13430B6270470A48036A090217
:1042B00089B20B4A1A400B4B134319430162024661
:1042C000936E13F0010FFBD0024A116A064B0B43A9
:1042D0001362704700060E40FCFFC8FE0200370163
:1042E000FCFFC8FF0100370000003701024B986E49
:1042F00000F48030704700BF00060E404FF00052BF
:10430000014B9A62704700BF00060E40024B986E48
:1043100000F00200704700BF00060E403F281ED884
:104320001F280CD8114B9A6901238340934318D05E
:10433000012303FA00F00D4B18610020704720386C
:104340000A4BD3F808210123834093430BD0012368
:1043500003FA00F0054BC3F800010020704701206C
:104360007047002070470020704700BF00060E40D5
:10437000034B1B6843F480231943016000207047FE
:104380002C2A402041B1094A136843F0807313601E
:104390000268134303607047044A136823F0807374
:1043A0001360026813430360704700BF2C2A40204B
:1043B0000268034B1B68134319430160704700BF39
:1043C0002C2A4020C068704708B5074B984203D19B
:1043D0001520FFF7A3FF08BD044B984202D12A2005
:1043E000FFF79CFF08BD00BF008000400080054033
:1043F000436823F4702343604368090401F4702187
:104400000B434360704700BF436823F07F43436022
:10441000436843EA01614160704700BF30B443F62E
:10442000992401E0013C11D0056915F0020FF9D083
:10443000446814F0020F06D0120402F470221143F3
:104440000BB141F08071C160002000E0012030BC60
:10445000704700BF32B100EB8100036B43F00103F2
:104460000363704700EB8100036B23F001030363D8
:10447000704700BF32B100EB8100036B43F00203D1
:104480000363704700EB8100036B23F002030363B7
:10449000704700BF042A0AD100EB8100036B23F0B0
:1044A00008030363036B43F004030363704752B9CB
:1044B00000EB8100036B23F008030363036B23F01D
:1044C000040303637047082A05D100EB8100036BE6
:1044D00043F008030363704700EB81010B6B23F08B
:1044E000F0030B630B6B1A430A637047431E1944B6
:1044F000B1FBF0F0431EFE2B94BF00B24FF0FF3033
:10450000704700BF6AB110B4144600EB81010B6B19
:1045100023F47F430B630A6B42EA04220A63002000
:1045200002E04FF0FF3070475DF8044B704700BF6A
:1045300010B400EB8101086B80B208630C6B44EA95
:10454000036343EA02420A635DF8044B704700BF0D
:104550000F4B994219D84900B2FBF1F2033AFF2AF6
:1045600007D9002301335208FF2A03D9062BF9D9B2
:1045700000E00023110289B21B0403F4E0230B4383
:10458000D2B21A430261002070470120704700BF79
:10459000801A060008B54FF0FF328262026A80225C
:1045A0000260026B08220260202202600422026084
:1045B0000A684968FFF7CCFF012814BF00200120DA
:1045C00008BD00BF70B4CC68002C48D002468D688E
:1045D000002646604B681B0203F4407343F480508E
:1045E0000B7C1B0403F4FE0303435360D66048684E
:1045F00058B10B78012802DD4E7846EA03230228E1
:1046000004DD897841EA032300E00023D36001231D
:104610001360022614E0136A13F4807F21D101395C
:1046200021D0012C04D1166013F0020F1FD1F2E744
:1046300013F0020F0BD0136B05F8013B013C08D0BF
:10464000136A13F4807010D143F69821E9E7002C27
:10465000E1D1136A13F0010FFBD0136A0AE00120C5
:1046600008E0052006E0092004E0052002E0136BC5
:104670002B70EEE770BC7047CA68002A45D070B452
:104680000346886800265E600C7C240404F4FE0562
:104690004C68240204F440742C435C60DE604D6876
:1046A0005DB10C78012D02DD4E7846EA0424022D1E
:1046B00004DD897841EA042400E00024DC600EE097
:1046C000196A11F4807F22D111F0040F02D1002A5F
:1046D000F6D10CE010F8011B5963013A07D0196AB2
:1046E00011F4807F15D111F0040FE9D0F2E71A6AB6
:1046F00012F480700FD112F0040FF8D002221A6069
:104700001A6A12F0010FFBD006E001207047052065
:1047100002E0052000E0052070BC7047436913F0FB
:10472000020F02D0C161002070470120704700BF16
:10473000436913F0010F03D083690B7000207047A9
:104740000120704710B40C0194420FD91AE041685F
:1047500041F400214160120402F4E0221A43026293
:1047600000201CE001201AE0012018E0630803EBA0
:10477000C202B2FBF4F2D3085C1E4FF6FE718C420B
:10478000E9D9EFE7C9004B0803EBC202B2FBF1F233
:10479000D3085C1E4FF6FE718C42E5D8D7E75DF872
:1047A000044B7047084BC0F8E43000234360436279
:1047B000836288230360242303604FF480730360C3
:1047C0004FF40023036070470041535570B5054610
:1047D0000C461646FFF7E6FF00220E4B1A609CB10E
:1047E000324621682846FFF7ADFF024670B961687E
:1047F000A368194323691943E3680B4305490B6018
:1048000069680B436B6002E0012200E00122104660
:1048100070BD00BF302A402040230360704700BFB6
:1048200010230360704700BF436913F0020F04D0E8
:10483000C1F30801C161002070470120704700BF2B
:10484000436913F0010F05D08369C3F308030B60BC
:10485000002070470120704708B50A46014602480B
:10486000FFF750FA002008BD000C0E4008B5A0F577
:104870008002C2F34F2211210348FFF74FFA0028AC
:1048800018BF102008BD00BF000C0E402DE9F04FEE
:1048900085B001910393A0F58003C3F34F2BC0F3C0
:1048A0000807002A47D09246DFF8989009F5FE7570
:1048B000C7F500784646D04528BF5646CDF808B023
:1048C0000BF5005464023A462146484600F0CAFC03
:1048D0003246019909EB070000F0C4FCB819C6EB99
:1048E0000802311992B23944484400F0BBFCA9F1E6
:1048F0000403043C53F8042F44F8042FAB42F9D1CD
:10490000039B2BB1029A03210D48FFF707FA04E03D
:10491000029A01210A48FFF701FA68B9019B334462
:1049200001930BF1010B1FFA8BFB0027BAEB060A70
:10493000BED1384600E0002005B0BDE8F08F00BFD2
:10494000000C0E40342A4020F8B5124C2040214083
:1049500041F6FF740C4402B1106003B11C60A0F575
:104960008004640AA4B20C4D0D44C5F34F25A54242
:104970000CD90A4F0926224631463846FFF7CEF9B0
:1049800030B91034A4B2AC42F5D3F8BD0020F8BD64
:10499000F8BD00BF00E0FFFFFF1FC0FF000C0E408E
:1049A000FEE700BF00B583B0274B284A9A4203D0E8
:1049B000274B254A9A4204D3264B274A9A420FD3C3
:1049C0001AE02149254B5B1A23F0030304331F4AE5
:1049D000134452F8040B41F8040B9A42F9D1EBE767
:1049E0001F4B204AD21A22F003021A44043B002132
:1049F00043F8041B9342FBD11B4A1C4B23F07F035B
:104A00009360EFF31083B3FA83F35B09019372B6FB
:104A1000BFF35F8F0022164B1A700199154A136875
:104A200043F470031360BFF34F8FBFF36F8F29B14F
:104A300001220F4B1A70BFF35F8F62B600F0C2FB0A
:104A4000FEF78CFAFEE700BF00004020342145004D
:104A50007C094020D02D40207C0940207B0940204B
:104A600080094020D32D402000ED00E000004000F0
:104A7000A000402088ED00E03C4B1B6B03F00303DB
:104A8000012B0FD013B1022B29D057E0384B5B69B3
:104A900013F0800F14BF4FF400424FF4FA42354B2D
:104AA0001A604BE0314B1B6A13F0807F03D0324A0F
:104AB000304B1A6042E0314A2E4B1A602B4B1B6A76
:104AC00003F07003102B02D0202B04D036E02C4AC8
:104AD000284B1A6032E0284A264B1A602EE0234BFE
:104AE0001B6A13F0807F03D0234A224B1A6012E026
:104AF000224A204B1A601D4B1B6A03F07003102BD7
:104B000002D0202B04D006E01D4A1A4B1A6002E0A6
:104B1000194A184B1A60154B1B6B03F00303022B49
:104B20000CD1124A936A926A1248C3F30A4103688D
:104B300001FB0333D2B2B3FBF2F303600B4B1B6BED
:104B400003F07003702B07D10A4A13680D49A1FBCB
:104B500003135B0813607047044B1B6B0549C3F3D9
:104B600002120B68D3400B60704700BF00060E4076
:104B700010180E40D0004020001BB70000093D0077
:104B800000127A00ABAAAAAA124B984204D84FF09E
:104B90008062114B1A607047104B984203D8104A3C
:104BA0000D4B1A6070470F4B984203D80E4A0A4BC0
:104BB0001A6070470D4B984203D80D4A064B1A6095
:104BC00070470C4B984294BF4FF004220A4A024BA4
:104BD0001A607047FF2C3101000C0E40FF59620231
:104BE00000010004FF86930300020004FFB3C40425
:104BF00000030004FFE0F50500050004094B1B68F5
:104C000013B9094A074B1A60064B1B681A18074963
:104C1000914204DB1046034A1060184670474FF07B
:104C2000FF307047342C4020D04F4020FCFF4520FF
:104C30004FF0FF30704700BF4FF400534B6000202F
:104C4000704700BF012070470020704781F000418D
:104C500002E000BF83F0004330B54FEA41044FEA61
:104C6000430594EA050F08BF90EA020F1FBF54EAFC
:104C7000000C55EA020C7FEA645C7FEA655C00F098
:104C8000E2804FEA5454D4EB5555B8BF6D420CDD69
:104C90002C4480EA020281EA030382EA000083EAEC
:104CA000010180EA020281EA0303362D88BF30BD8C
:104CB00011F0004F4FEA01314FF4801C4CEA1131E2
:104CC00002D0404261EB410113F0004F4FEA033341
:104CD0004CEA133302D0524263EB430394EA050FCC
:104CE00000F0A780A4F10104D5F1200E0DDB02FA3B
:104CF0000EFC22FA05F2801841F1000103FA0EF2CF
:104D0000801843FA05F359410EE0A5F120050EF194
:104D1000200E012A03FA0EFC28BF4CF0020C43FAC5
:104D200005F3C01851EBE37101F0004507D54FF0D2
:104D3000000EDCF1000C7EEB00006EEB0101B1F522
:104D4000801F1BD3B1F5001F0CD349085FEA300068
:104D50004FEA3C0C04F101044FEA445212F5800F73
:104D600080F09A80BCF1004F08BF5FEA500C50F110
:104D7000000041EB045141EA050130BD5FEA4C0CF3
:104D8000404141EB010111F4801FA4F10104E9D17C
:104D900091F0000F04BF01460020B1FA81F308BF73
:104DA0002033A3F10B03B3F120020CDA0C3208DD3F
:104DB00002F1140CC2F10C0201FA0CF021FA02F11A
:104DC0000CE002F11402D8BFC2F1200C01FA02F18A
:104DD00020FA0CFCDCBF41EA0C019040E41AA2BFAF
:104DE00001EB0451294330BD6FEA04041F3C1CDA77
:104DF0000C340EDC04F11404C4F1200220FA04F097
:104E000001FA02F340EA030021FA04F345EA030140
:104E100030BDC4F10C04C4F1200220FA02F001FA02
:104E200004F340EA0300294630BD21FA04F0294684
:104E300030BD94F0000F83F4801306BF81F480111D
:104E40000134013D4EE77FEA645C18BF7FEA655C90
:104E500029D094EA050F08BF90EA020F05D054EA62
:104E6000000C04BF1946104630BD91EA030F1EBF67
:104E70000021002030BD5FEA545C05D1400049416B
:104E800028BF41F0004130BD14F580043CBF01F55E
:104E9000801130BD01F0004545F0FE4141F4700144
:104EA0004FF0000030BD7FEA645C1ABF194610461F
:104EB0007FEA655C1CBF0B46024650EA013406BF20
:104EC00052EA033591EA030F41F4002130BD00BFDF
:104ED00090F0000F04BF0021704730B54FF480649C
:104EE00004F132044FF000054FF0000150E700BF1D
:104EF00090F0000F04BF0021704730B54FF480647C
:104F000004F1320410F0004548BF40424FF0000168
:104F10003EE700BF42004FEAE2014FEA31014FEAAB
:104F200002701FBF12F07F4393F07F4F81F06051FA
:104F3000704792F0000F14BF93F07F4F704730B569
:104F40004FF4607401F0004521F0004120E700BFFC
:104F500050EA010208BF704730B54FF000050AE083
:104F600050EA010208BF704730B511F0004502D584
:104F7000404261EB41014FF4806404F132045FEA86
:104F8000915C3FF4DCAE4FF003025FEADC0C18BF2B
:104F900003325FEADC0C18BF033202EBDC02C2F121
:104FA000200300FA03FC20FA02F001FA03FE40EAB3
:104FB0000E0021FA02F11444C1E600BF4FF0FF3C9D
:104FC00006E000BF4FF0010C02E000BF4FF0010C03
:104FD0004DF804CD4FEA410C7FEA6C5C4FEA430C7C
:104FE00018BF7FEA6C5C1BD001B050EA410C0CBFCB
:104FF00052EA430C91EA030F02BF90EA020F00202D
:10500000704710F1000F91EA030F58BF994208BF93
:1050100090422CBFD8176FEAE37040F00100704750
:105020004FEA410C7FEA6C5C02D150EA013C07D1A7
:105030004FEA430C7FEA6C5CD6D152EA033CD3D0F2
:105040005DF8040B704700BF8446104662468C46EC
:105050001946634600E000BF01B5FFF7B7FF00281F
:1050600048BF10F1000F01BD4DF808EDFFF7F4FF48
:105070000CBF012000205DF808FB00BF4DF808EDD3
:10508000FFF7EAFF34BF012000205DF808FB00BFF6
:105090004DF808EDFFF7E0FF94BF012000205DF818
:1050A00008FB00BF4DF808EDFFF7CEFF94BF0120CD
:1050B00000205DF808FB00BF4DF808EDFFF7C4FFC6
:1050C00034BF012000205DF808FB00BF4FEA410219
:1050D00012F5001215D211D56FF47873B3EB62524A
:1050E00012D94FEAC12343F0004343EA505311F071
:1050F000004F23FA02F018BF404270474FF0000003
:10510000704750EA013005D111F0004008BF6FF040
:10511000004070474FF00000704700BF4FEA410267
:10512000B2F1E04324BFB3F5001CDCF1FE5C0DD905
:1051300001F0004C4FEAC0024CEA5070B2F1004F4F
:1051400040EB830008BF20F00100704711F0804F52
:1051500021D113F13872BCBF01F00040704741F417
:1051600080114FEA5252C2F11802C2F1200C10FA1B
:105170000CF320FA02F018BF40F001004FEAC123FF
:105180004FEAD32303FA0CFC40EA0C0023FA02F3A3
:105190004FEA4303CCE77FEA625307D150EA013379
:1051A0001EBF4FF0FE4040F44000704701F0004049
:1051B00040F0FE4040F40000704700BF002101F0C5
:1051C000E1BC00BF70B50F4E0F4D761BB61018BF77
:1051D000002405D0013455F8043B9847A642F9D184
:1051E0000A4E0B4D761B4CF075FFB61018BF00240D
:1051F00006D0013455F8043B9847A642F9D170BD5A
:1052000070BD00BFE0204500E0204500E8204500DB
:10521000E02045000FB400B5074983B004AB08682F
:1052200053F8042B8168019303F03EF803B05DF856
:1052300004EB04B0704700BF000540200FB400B578
:10524000074983B004AB086853F8042B4168019305
:1052500003F05EFF03B05DF804EB04B0704700BFDD
:1052600000054020844641EA000313F003036DD19A
:10527000403A41D351F8043B40F8043B51F8043B19
:1052800040F8043B51F8043B40F8043B51F8043B20
:1052900040F8043B51F8043B40F8043B51F8043B10
:1052A00040F8043B51F8043B40F8043B51F8043B00
:1052B00040F8043B51F8043B40F8043B51F8043BF0
:1052C00040F8043B51F8043B40F8043B51F8043BE0
:1052D00040F8043B51F8043B40F8043B51F8043BD0
:1052E00040F8043B51F8043B40F8043B51F8043BC0
:1052F00040F8043B403ABDD2303211D351F8043B60
:1053000040F8043B51F8043B40F8043B51F8043B9F
:1053100040F8043B51F8043B40F8043B103AEDD20E
:105320000C3205D351F8043B40F8043B043AF9D25F
:10533000043208D0D2071CBF11F8013B00F8013B32
:1053400001D30B8803806046704700BF082A13D33F
:105350008B078DD010F003038AD0C3F10403D21A57
:10536000DB071CBF11F8013B00F8013B80D331F88B
:10537000023B20F8023B7BE7043AD9D3013A11F80B
:10538000013B00F8013BF9D20B7803704B78437076
:105390008B7883706046704770B4840746D0541E83
:1053A000002A41D0CDB2034602E0621EE4B31446A7
:1053B00003F8015B9A07F8D1032C2ED9CDB245EA48
:1053C00005250F2C45EA054519D903F1100226469B
:1053D000103E0F2E42F8105C42F80C5C42F8085C5C
:1053E00042F8045C02F11002F2D8A4F1100222F09B
:1053F0000F0204F00F041032032C13440DD91E4683
:105400002246043A032A46F8045BFAD8221F22F007
:1054100003020432134404F003042CB1C9B21C4447
:1054200003F8011BA342FBD170BC7047144603462E
:10543000C2E700BF00290CBF022200224FF48063A4
:1054400000F000B82DE9F043514C256883B00446C4
:105450000F4690461E4615B1AB6B002B79D0B8F1C4
:10546000020F04D0B8F1010F7FD8002E7DDB21465A
:10547000284605F06DFC216B41B104F140039942CF
:1054800002D0284605F0A2FE00232363B4F90C30B5
:105490000022A26162601A0654D423F44A6323F006
:1054A0000303B8F1020FA38139D001AB6A4621464C
:1054B000284606F015FDA3891843A08126B327B31B
:1054C000AB6B002B4DD0009BB4F90C0027609E42C3
:1054D0001CBF40F40060A081B8F1010F08BF40F08C
:1054E000010083B208BFA08103F0080080B22761E9
:1054F000666118B313F001002FD000207642A66138
:10550000A06003B0BDE8F083009E304606F05CFD6D
:10551000074668B3A38943F08003A381D0E7002046
:1055200004F1430243F0020300250121A381A56099
:1055300022602261616103B0BDE8F083A06003B026
:10554000BDE8F0832169284605F040FEB4F90C302F
:10555000A3E7284605F0A2FC81E7A66003B0BDE8FA
:10556000F083284605F09AFCADE74FF0FF30E2E704
:10557000DDF80090B14506D0484606F025FD074607
:1055800008B14E46C6E7B4F90C304FF0FF30C7E71C
:10559000000540200EB4F0B59CB021AB0F4953F884
:1055A000042B019305466FF00044086802954FF400
:1055B00002774FF6FF7602A90695ADF814700494B1
:1055C0000794ADF8166001F0E5FA029B00221A700C
:1055D0001CB0BDE8F04003B0704700BF000540209C
:1055E00080EA0102844612F0030F4FD111F0030F3D
:1055F00032D14DF8044D11F0040F51F8043B0BD09B
:10560000A3F101329A4312F0803F04BF4CF8043BEF
:1056100051F8043B16D100BF51F8044BA3F10132FD
:105620009A4312F0803FA4F101320BD14CF8043BB5
:10563000A24312F0803F04BF51F8043B4CF8044BE6
:10564000EAD023460CF8013B13F0FF0F4FEA332357
:10565000F8D15DF8044B704711F0010F06D011F836
:10566000012B0CF8012B002A08BF704711F0020F24
:10567000BFD031F8022B12F0FF0F16BF2CF8022B0F
:105680008CF8002012F47F4FB3D1704711F8012B32
:105690000CF8012B002AF9D1704700BF0000000070
:1056A00000000000000000000000000000000000FA
:1056B00000000000000000000000000000000000EA
:1056C00090F800F06DE9024520F007016FF0000C42
:1056D00010F0070491F820F040F049804FF00004EA
:1056E0006FF00700D1E9002391F840F000F10800C5
:1056F00082FA4CF2A4FA8CF283FA4CF3A2FA8CF3FD
:105700004BBBD1E9022382FA4CF200F10800A4FA63
:105710008CF283FA4CF3A2FA8CF3E3B9D1E90423B7
:1057200082FA4CF200F10800A4FA8CF283FA4CF3EE
:10573000A2FA8CF37BB9D1E9062301F1200182FAA8
:105740004CF200F10800A4FA8CF283FA4CF3A2FAAE
:105750008CF3002BC6D0002A04BF04301A4612BABC
:10576000B2FA82F2FDE8024500EBD2007047D1E9BF
:10577000002304F00305C4F100004FEAC50514F04E
:10578000040F91F840F00CFA05F562EA05021CBF1F
:1057900063EA050362464FF00004A9E72DE9F041F2
:1057A0004FF0010E744600254FF0FF362B198B4247
:1057B00000EB06070DD23F5D10F803C0BC452DD2AB
:1057C0001D460124C6EB030E2B198B4200EB060786
:1057D000F1D34FF00108C2F800E0444600254FF035
:1057E000FF372B19994200EB070E0ED91EF804E083
:1057F00010F803C0F44518D91D460124C7EB03086F
:105800002B19994200EB070EF0D80137701C874224
:1058100024BFC2F800803846BDE8F0810CD04FF0BC
:10582000010E2E4674467544C0E70CD04FF00108B7
:105830002F4644464544D4E7744509BFA646013483
:105840001D460124B2E7444509BFA04601341D4668
:105850000124C6E72DE9F04FADF2144D164605467A
:105860008B461046194603AA1C46FFF797FF03AB69
:1058700081460DF20C4243F8044F9342FBD14CB1E8
:10588000631E324604A812F8011B40F8213013F1C0
:10589000FF33F8D203994A463144304606F0E8FE19
:1058A000002871D109F1FF330093F3188246019368
:1058B00023468046544658469A4608EB0A073A1A49
:1058C0000021284406F084FE002858D1002F56D02D
:1058D000EB1904AA13F8013C52F823304BB124B160
:1058E000039A934201D2C2EB0A039844002438463B
:1058F000E3E74C4523460AF1FF3E38BF4B4673456C
:1059000013D208EB030216F803C0A85C84452A44AE
:1059100006EB030106D02EE011F801CF12F8010FBB
:10592000844528D101337345F6D34C45009980F066
:105930008B80009B019808EB03020378A85C8342EC
:105940002A4440F08180019B06EB040B06E013F82B
:1059500001ED12F8010D864504D161469B4501F128
:10596000FF3CF4D101348C4270D8039C3846A044EB
:10597000C4EB0A04A1E7C9F101029044B5E7002095
:105980000DF2144DBDE8F08FC9EB04034B4538BF51
:105990004B46013309F1FF38039306EB08035846E1
:1059A0004FF0000ACB4699460AEB04073A1A002149
:1059B000284406F00DFE0028E1D1002FDFD0EB19BE
:1059C00004AA13F8013C52F82330A3BB611E8B4597
:1059D00015D20AEB0B0216F80B3015F802E09E45C3
:1059E0002A4406EB0B005B4606D027E010F801CFF7
:1059F00012F801EFF44521D101338B42F6D3B8F10F
:105A0000FF3F11D00AEB080299F80010AB5C9942F5
:105A10002A440FD14B4605E013F8010D12F8011D81
:105A2000884207D1B342F7D105EB0A000DF2144DBD
:105A3000BDE8F08F039B9A443846B5E7CBF10102ED
:105A400092449A443846AFE749468BE705EB080095
:105A500096E700BF0378002B00F004812DE9F04F9A
:105A600091F8008085B04446B8F1000F16D0864604
:105A700001F1010C012703E012F8014B6CB19446CF
:105A80009C4214BF002707F001071EF8013F624641
:105A9000002BF1D19CF800300BBB17B105B0BDE86D
:105AA000F08F0E46054641460130C6EB0C0407F068
:105AB000EFFD074698B1012CF0D02819874294BF1A
:105AC000C7EB000B4FF0010B1F2C0CD923463246BD
:105AD00059463846FFF7BEFE05B0BDE8F08F0020FE
